{
  "contractName": "Faucet",
  "abi": [
    {
      "inputs": [
        {
          "internalType": "uint256",
          "name": "",
          "type": "uint256"
        }
      ],
      "name": "funders",
      "outputs": [
        {
          "internalType": "address",
          "name": "",
          "type": "address"
        }
      ],
      "stateMutability": "view",
      "type": "function",
      "constant": true
    },
    {
      "inputs": [],
      "name": "isOwner",
      "outputs": [
        {
          "internalType": "address",
          "name": "",
          "type": "address"
        }
      ],
      "stateMutability": "view",
      "type": "function",
      "constant": true
    },
    {
      "stateMutability": "payable",
      "type": "receive",
      "payable": true
    },
    {
      "inputs": [],
      "name": "test1",
      "outputs": [],
      "stateMutability": "nonpayable",
      "type": "function"
    },
    {
      "inputs": [],
      "name": "test2",
      "outputs": [],
      "stateMutability": "nonpayable",
      "type": "function"
    },
    {
      "inputs": [],
      "name": "addFunds",
      "outputs": [],
      "stateMutability": "payable",
      "type": "function",
      "payable": true
    },
    {
      "inputs": [
        {
          "internalType": "uint256",
          "name": "amount",
          "type": "uint256"
        }
      ],
      "name": "withdraw",
      "outputs": [],
      "stateMutability": "nonpayable",
      "type": "function"
    },
    {
      "inputs": [],
      "name": "getAllFunders",
      "outputs": [
        {
          "internalType": "address[]",
          "name": "",
          "type": "address[]"
        }
      ],
      "stateMutability": "view",
      "type": "function",
      "constant": true
    },
    {
      "inputs": [
        {
          "internalType": "uint8",
          "name": "index",
          "type": "uint8"
        }
      ],
      "name": "getFunderAtIndex",
      "outputs": [
        {
          "internalType": "address",
          "name": "",
          "type": "address"
        }
      ],
      "stateMutability": "view",
      "type": "function",
      "constant": true
    }
  ],
  "bytecode": "0x608060405234801561001057600080fd5b50336000806101000a81548173ffffffffffffffffffffffffffffffffffffffff021916908373ffffffffffffffffffffffffffffffffffffffff1602179055506108a6806100606000396000f3fe60806040526004361061007f5760003560e01c80636fbbb55d1161004e5780636fbbb55d1461011f5780638f32d59b1461014a578063a26759cb14610175578063dc0d3dff1461017f57610086565b80630a93cf331461008b5780632e1a7d4d146100c857806366e41cb7146100f15780636b59084d1461010857610086565b3661008657005b600080fd5b34801561009757600080fd5b506100b260048036038101906100ad9190610540565b6101bc565b6040516100bf91906105ae565b60405180910390f35b3480156100d457600080fd5b506100ef60048036038101906100ea91906105ff565b6101f5565b005b3480156100fd57600080fd5b5061010661028c565b005b34801561011457600080fd5b5061011d61031c565b005b34801561012b57600080fd5b506101346103ac565b60405161014191906106ea565b60405180910390f35b34801561015657600080fd5b5061015f61043a565b60405161016c91906105ae565b60405180910390f35b61017d61045e565b005b34801561018b57600080fd5b506101a660048036038101906101a191906105ff565b6104c3565b6040516101b391906105ae565b60405180910390f35b6000806101c76103ac565b90506000818460ff16815181106101e1576101e061070c565b5b602002602001015190508092505050919050565b8067016345785d8a0000811115610241576040517f08c379a0000000000000000000000000000000000000000000000000000000008152600401610238906107be565b60405180910390fd5b3373ffffffffffffffffffffffffffffffffffffffff166108fc839081150290604051600060405180830381858888f19350505050158015610287573d6000803e3d6000fd5b505050565b3373ffffffffffffffffffffffffffffffffffffffff1660008054906101000a900473ffffffffffffffffffffffffffffffffffffffff1673ffffffffffffffffffffffffffffffffffffffff161461031a576040517f08c379a000000000000000000000000000000000000000000000000000000000815260040161031190610850565b60405180910390fd5b565b3373ffffffffffffffffffffffffffffffffffffffff1660008054906101000a900473ffffffffffffffffffffffffffffffffffffffff1673ffffffffffffffffffffffffffffffffffffffff16146103aa576040517f08c379a00000000000000000000000000000000000000000000000000000000081526004016103a190610850565b60405180910390fd5b565b6060600180548060200260200160405190810160405280929190818152602001828054801561043057602002820191906000526020600020905b8160009054906101000a900473ffffffffffffffffffffffffffffffffffffffff1673ffffffffffffffffffffffffffffffffffffffff16815260200190600101908083116103e6575b5050505050905090565b60008054906101000a900473ffffffffffffffffffffffffffffffffffffffff1681565b6001339080600181540180825580915050600190039060005260206000200160009091909190916101000a81548173ffffffffffffffffffffffffffffffffffffffff021916908373ffffffffffffffffffffffffffffffffffffffff160217905550565b600181815481106104d357600080fd5b906000526020600020016000915054906101000a900473ffffffffffffffffffffffffffffffffffffffff1681565b600080fd5b600060ff82169050919050565b61051d81610507565b811461052857600080fd5b50565b60008135905061053a81610514565b92915050565b60006020828403121561055657610555610502565b5b60006105648482850161052b565b91505092915050565b600073ffffffffffffffffffffffffffffffffffffffff82169050919050565b60006105988261056d565b9050919050565b6105a88161058d565b82525050565b60006020820190506105c3600083018461059f565b92915050565b6000819050919050565b6105dc816105c9565b81146105e757600080fd5b50565b6000813590506105f9816105d3565b92915050565b60006020828403121561061557610614610502565b5b6000610623848285016105ea565b91505092915050565b600081519050919050565b600082825260208201905092915050565b6000819050602082019050919050565b6106618161058d565b82525050565b60006106738383610658565b60208301905092915050565b6000602082019050919050565b60006106978261062c565b6106a18185610637565b93506106ac83610648565b8060005b838110156106dd5781516106c48882610667565b97506106cf8361067f565b9250506001810190506106b0565b5085935050505092915050565b60006020820190508181036000830152610704818461068c565b905092915050565b7f4e487b7100000000000000000000000000000000000000000000000000000000600052603260045260246000fd5b600082825260208201905092915050565b7f596f752063616e206e6f74207769746864726177206d6f7265207468656e203060008201527f2e31206574686572000000000000000000000000000000000000000000000000602082015250565b60006107a860288361073b565b91506107b38261074c565b604082019050919050565b600060208201905081810360008301526107d78161079b565b9050919050565b7f4f6e6c79206f776e65722063616e2063616c6c20746869732066756e6374696f60008201527f6e2e000000000000000000000000000000000000000000000000000000000000602082015250565b600061083a60228361073b565b9150610845826107de565b604082019050919050565b600060208201905081810360008301526108698161082d565b905091905056fea26469706673582212202b6107a6338299db30b2ae44218ca1a5fa1468953bf8223d48eb740dc2364e1564736f6c63430008090033",
  "immutableReferences": {},
  "source": "// SPDX-License-Identifier: MIT\r\npragma solidity >=0.4.22 <0.9.0;\r\n\r\nimport \"./Owned.sol\";\r\n\r\ncontract Faucet is Owned {\r\n    address[] public funders;\r\n\r\n    modifier limitWithdraw(uint256 amount) {\r\n        require(\r\n            amount <= 100000000000000000,\r\n            \"You can not withdraw more then 0.1 ether\"\r\n        );\r\n        _;\r\n    }\r\n\r\n    receive() external payable {}\r\n\r\n    function test1() external checkIsOwner {}\r\n\r\n    function test2() external checkIsOwner {}\r\n\r\n    function addFunds() external payable {\r\n        funders.push(msg.sender);\r\n    }\r\n\r\n    function withdraw(uint256 amount) external limitWithdraw(amount) {\r\n        payable(msg.sender).transfer(amount);\r\n    }\r\n\r\n    function getAllFunders() public view returns (address[] memory) {\r\n        return funders;\r\n    }\r\n\r\n    function getFunderAtIndex(uint8 index) external view returns (address) {\r\n        address[] memory fetchFunders = getAllFunders();\r\n\r\n        address funder = fetchFunders[index];\r\n\r\n        return funder;\r\n    }\r\n}\r\n",
  "sourcePath": "C:\\Users\\effiongge\\Documents\\personal\\study\\solidity-with-react\\faucet\\contracts\\FaucetContract.sol",
  "compiler": {
    "name": "solc",
    "version": "0.8.9+commit.e5eed63a.Emscripten.clang"
  },
  "schemaVersion": "3.4.3",
  "updatedAt": "2021-10-11T21:19:03.338Z",
  "networkType": "ethereum",
  "devdoc": {
    "kind": "dev",
    "methods": {},
    "version": 1
  },
  "userdoc": {
    "kind": "user",
    "methods": {},
    "version": 1
  }
}